{
  "_format": "hh-sol-artifact-1",
  "contractName": "MyEpicNFT",
  "sourceName": "contracts/MyEpicNFT.sol",
  "abi": [
    {
      "inputs": [],
      "stateMutability": "nonpayable",
      "type": "constructor"
    },
    {
      "anonymous": false,
      "inputs": [
        {
          "indexed": true,
          "internalType": "address",
          "name": "owner",
          "type": "address"
        },
        {
          "indexed": true,
          "internalType": "address",
          "name": "approved",
          "type": "address"
        },
        {
          "indexed": true,
          "internalType": "uint256",
          "name": "tokenId",
          "type": "uint256"
        }
      ],
      "name": "Approval",
      "type": "event"
    },
    {
      "anonymous": false,
      "inputs": [
        {
          "indexed": true,
          "internalType": "address",
          "name": "owner",
          "type": "address"
        },
        {
          "indexed": true,
          "internalType": "address",
          "name": "operator",
          "type": "address"
        },
        {
          "indexed": false,
          "internalType": "bool",
          "name": "approved",
          "type": "bool"
        }
      ],
      "name": "ApprovalForAll",
      "type": "event"
    },
    {
      "anonymous": false,
      "inputs": [
        {
          "indexed": false,
          "internalType": "address",
          "name": "sender",
          "type": "address"
        },
        {
          "indexed": false,
          "internalType": "uint256",
          "name": "tokenId",
          "type": "uint256"
        }
      ],
      "name": "NewEpicNFTMinted",
      "type": "event"
    },
    {
      "anonymous": false,
      "inputs": [
        {
          "indexed": true,
          "internalType": "address",
          "name": "from",
          "type": "address"
        },
        {
          "indexed": true,
          "internalType": "address",
          "name": "to",
          "type": "address"
        },
        {
          "indexed": true,
          "internalType": "uint256",
          "name": "tokenId",
          "type": "uint256"
        }
      ],
      "name": "Transfer",
      "type": "event"
    },
    {
      "inputs": [
        {
          "internalType": "address",
          "name": "to",
          "type": "address"
        },
        {
          "internalType": "uint256",
          "name": "tokenId",
          "type": "uint256"
        }
      ],
      "name": "approve",
      "outputs": [],
      "stateMutability": "nonpayable",
      "type": "function"
    },
    {
      "inputs": [
        {
          "internalType": "address",
          "name": "owner",
          "type": "address"
        }
      ],
      "name": "balanceOf",
      "outputs": [
        {
          "internalType": "uint256",
          "name": "",
          "type": "uint256"
        }
      ],
      "stateMutability": "view",
      "type": "function"
    },
    {
      "inputs": [
        {
          "internalType": "uint256",
          "name": "tokenId",
          "type": "uint256"
        }
      ],
      "name": "getApproved",
      "outputs": [
        {
          "internalType": "address",
          "name": "",
          "type": "address"
        }
      ],
      "stateMutability": "view",
      "type": "function"
    },
    {
      "inputs": [],
      "name": "getCurrentNFT",
      "outputs": [
        {
          "internalType": "uint256",
          "name": "",
          "type": "uint256"
        }
      ],
      "stateMutability": "view",
      "type": "function"
    },
    {
      "inputs": [
        {
          "internalType": "address",
          "name": "owner",
          "type": "address"
        },
        {
          "internalType": "address",
          "name": "operator",
          "type": "address"
        }
      ],
      "name": "isApprovedForAll",
      "outputs": [
        {
          "internalType": "bool",
          "name": "",
          "type": "bool"
        }
      ],
      "stateMutability": "view",
      "type": "function"
    },
    {
      "inputs": [],
      "name": "makeAnEpicNFT",
      "outputs": [],
      "stateMutability": "nonpayable",
      "type": "function"
    },
    {
      "inputs": [],
      "name": "name",
      "outputs": [
        {
          "internalType": "string",
          "name": "",
          "type": "string"
        }
      ],
      "stateMutability": "view",
      "type": "function"
    },
    {
      "inputs": [
        {
          "internalType": "uint256",
          "name": "tokenId",
          "type": "uint256"
        }
      ],
      "name": "ownerOf",
      "outputs": [
        {
          "internalType": "address",
          "name": "",
          "type": "address"
        }
      ],
      "stateMutability": "view",
      "type": "function"
    },
    {
      "inputs": [
        {
          "internalType": "uint256",
          "name": "tokenId",
          "type": "uint256"
        }
      ],
      "name": "pickRandomFirstWord",
      "outputs": [
        {
          "internalType": "string",
          "name": "",
          "type": "string"
        }
      ],
      "stateMutability": "view",
      "type": "function"
    },
    {
      "inputs": [
        {
          "internalType": "uint256",
          "name": "tokenId",
          "type": "uint256"
        }
      ],
      "name": "pickRandomSecondWord",
      "outputs": [
        {
          "internalType": "string",
          "name": "",
          "type": "string"
        }
      ],
      "stateMutability": "view",
      "type": "function"
    },
    {
      "inputs": [
        {
          "internalType": "uint256",
          "name": "tokenId",
          "type": "uint256"
        }
      ],
      "name": "pickRandomThirdWord",
      "outputs": [
        {
          "internalType": "string",
          "name": "",
          "type": "string"
        }
      ],
      "stateMutability": "view",
      "type": "function"
    },
    {
      "inputs": [
        {
          "internalType": "address",
          "name": "from",
          "type": "address"
        },
        {
          "internalType": "address",
          "name": "to",
          "type": "address"
        },
        {
          "internalType": "uint256",
          "name": "tokenId",
          "type": "uint256"
        }
      ],
      "name": "safeTransferFrom",
      "outputs": [],
      "stateMutability": "nonpayable",
      "type": "function"
    },
    {
      "inputs": [
        {
          "internalType": "address",
          "name": "from",
          "type": "address"
        },
        {
          "internalType": "address",
          "name": "to",
          "type": "address"
        },
        {
          "internalType": "uint256",
          "name": "tokenId",
          "type": "uint256"
        },
        {
          "internalType": "bytes",
          "name": "_data",
          "type": "bytes"
        }
      ],
      "name": "safeTransferFrom",
      "outputs": [],
      "stateMutability": "nonpayable",
      "type": "function"
    },
    {
      "inputs": [
        {
          "internalType": "address",
          "name": "operator",
          "type": "address"
        },
        {
          "internalType": "bool",
          "name": "approved",
          "type": "bool"
        }
      ],
      "name": "setApprovalForAll",
      "outputs": [],
      "stateMutability": "nonpayable",
      "type": "function"
    },
    {
      "inputs": [
        {
          "internalType": "bytes4",
          "name": "interfaceId",
          "type": "bytes4"
        }
      ],
      "name": "supportsInterface",
      "outputs": [
        {
          "internalType": "bool",
          "name": "",
          "type": "bool"
        }
      ],
      "stateMutability": "view",
      "type": "function"
    },
    {
      "inputs": [],
      "name": "symbol",
      "outputs": [
        {
          "internalType": "string",
          "name": "",
          "type": "string"
        }
      ],
      "stateMutability": "view",
      "type": "function"
    },
    {
      "inputs": [
        {
          "internalType": "uint256",
          "name": "tokenId",
          "type": "uint256"
        }
      ],
      "name": "tokenURI",
      "outputs": [
        {
          "internalType": "string",
          "name": "",
          "type": "string"
        }
      ],
      "stateMutability": "view",
      "type": "function"
    },
    {
      "inputs": [
        {
          "internalType": "address",
          "name": "from",
          "type": "address"
        },
        {
          "internalType": "address",
          "name": "to",
          "type": "address"
        },
        {
          "internalType": "uint256",
          "name": "tokenId",
          "type": "uint256"
        }
      ],
      "name": "transferFrom",
      "outputs": [],
      "stateMutability": "nonpayable",
      "type": "function"
    }
  ],
  "bytecode": "0x608060405260405180610160016040528061012f81526020016200429761012f9139600890805190602001906200003892919062000683565b506040518060c001604052806040518060400160405280600781526020017f426974636f696e0000000000000000000000000000000000000000000000000081525081526020016040518060400160405280600681526020017f536f6c616e61000000000000000000000000000000000000000000000000000081525081526020016040518060400160405280600881526020017f457468657265756d00000000000000000000000000000000000000000000000081525081526020016040518060400160405280600981526020017f436861696e6c696e6b000000000000000000000000000000000000000000000081525081526020016040518060400160405280600781526020017f506f6c79676f6e0000000000000000000000000000000000000000000000000081525081526020016040518060400160405280600781526020017f43617264616e6f000000000000000000000000000000000000000000000000008152508152506009906006620001b692919062000714565b506040518060c001604052806040518060400160405280600381526020017f456174000000000000000000000000000000000000000000000000000000000081525081526020016040518060400160405280600381526020017f52756e000000000000000000000000000000000000000000000000000000000081525081526020016040518060400160405280600381526020017f427579000000000000000000000000000000000000000000000000000000000081525081526020016040518060400160405280600481526020017f4a756d700000000000000000000000000000000000000000000000000000000081525081526020016040518060400160405280600481526020017f57616c6b0000000000000000000000000000000000000000000000000000000081525081526020016040518060400160405280600481526020017f506c617900000000000000000000000000000000000000000000000000000000815250815250600a9060066200033492919062000714565b506040518060c001604052806040518060400160405280600781526020017f4c6f62737465720000000000000000000000000000000000000000000000000081525081526020016040518060400160405280600681526020017f536872696d70000000000000000000000000000000000000000000000000000081525081526020016040518060400160405280600681526020017f4f7973746572000000000000000000000000000000000000000000000000000081525081526020016040518060400160405280600481526020017f426565660000000000000000000000000000000000000000000000000000000081525081526020016040518060400160405280600481526020017f506f726b0000000000000000000000000000000000000000000000000000000081525081526020016040518060400160405280600781526020017f436869636b656e00000000000000000000000000000000000000000000000000815250815250600b906006620004b292919062000714565b506000600c55348015620004c557600080fd5b506040518060400160405280600981526020017f5371756172654e465400000000000000000000000000000000000000000000008152506040518060400160405280600681526020017f535155415245000000000000000000000000000000000000000000000000000081525081600090805190602001906200054a92919062000683565b5080600190805190602001906200056392919062000683565b505050620005b16040518060400160405280601e81526020017f54686973206973206d79204e465420636f6e74726163742e20576f6168210000815250620005b760201b620012651760201c565b62000935565b6200065781604051602401620005ce919062000849565b6040516020818303038152906040527f41304fac000000000000000000000000000000000000000000000000000000007bffffffffffffffffffffffffffffffffffffffffffffffffffffffff19166020820180517bffffffffffffffffffffffffffffffffffffffffffffffffffffffff83818316178352505050506200065a60201b60201c565b50565b60008151905060006a636f6e736f6c652e6c6f679050602083016000808483855afa5050505050565b8280546200069190620008bf565b90600052602060002090601f016020900481019282620006b5576000855562000701565b82601f10620006d057805160ff191683800117855562000701565b8280016001018555821562000701579182015b8281111562000700578251825591602001919060010190620006e3565b5b5090506200071091906200077b565b5090565b82805482825590600052602060002090810192821562000768579160200282015b82811115620007675782518290805190602001906200075692919062000683565b509160200191906001019062000735565b5b5090506200077791906200079a565b5090565b5b80821115620007965760008160009055506001016200077c565b5090565b5b80821115620007be5760008181620007b49190620007c2565b506001016200079b565b5090565b508054620007d090620008bf565b6000825580601f10620007e4575062000805565b601f0160209004906000526020600020908101906200080491906200077b565b5b50565b600062000815826200086d565b62000821818562000878565b93506200083381856020860162000889565b6200083e8162000924565b840191505092915050565b6000602082019050818103600083015262000865818462000808565b905092915050565b600081519050919050565b600082825260208201905092915050565b60005b83811015620008a95780820151818401526020810190506200088c565b83811115620008b9576000848401525b50505050565b60006002820490506001821680620008d857607f821691505b60208210811415620008ef57620008ee620008f5565b5b50919050565b7f4e487b7100000000000000000000000000000000000000000000000000000000600052602260045260246000fd5b6000601f19601f8301169050919050565b61395280620009456000396000f3fe608060405234801561001057600080fd5b50600436106101165760003560e01c8063777cc588116100a2578063b88d4fde11610071578063b88d4fde14610305578063c575757a14610321578063c87b56dd14610351578063de9d132f14610381578063e985e9c51461038b57610116565b8063777cc5881461027d57806395d89b411461029b578063a22cb465146102b9578063b187301f146102d557610116565b806323b872dd116100e957806323b872dd146101b55780632de38d68146101d157806342842e0e146102015780636352211e1461021d57806370a082311461024d57610116565b806301ffc9a71461011b57806306fdde031461014b578063081812fc14610169578063095ea7b314610199575b600080fd5b61013560048036038101906101309190612546565b6103bb565b60405161014291906131a8565b60405180910390f35b61015361049d565b60405161016091906131c3565b60405180910390f35b610183600480360381019061017e9190612598565b61052f565b6040516101909190613118565b60405180910390f35b6101b360048036038101906101ae919061250a565b6105b4565b005b6101cf60048036038101906101ca9190612404565b6106cc565b005b6101eb60048036038101906101e69190612598565b61072c565b6040516101f891906131c3565b60405180910390f35b61021b60048036038101906102169190612404565b61084a565b005b61023760048036038101906102329190612598565b61086a565b6040516102449190613118565b60405180910390f35b6102676004803603810190610262919061239f565b61091c565b6040516102749190613443565b60405180910390f35b6102856109d4565b6040516102929190613443565b60405180910390f35b6102a36109de565b6040516102b091906131c3565b60405180910390f35b6102d360048036038101906102ce91906124ce565b610a70565b005b6102ef60048036038101906102ea9190612598565b610bf1565b6040516102fc91906131c3565b60405180910390f35b61031f600480360381019061031a9190612453565b610d0f565b005b61033b60048036038101906103369190612598565b610d71565b60405161034891906131c3565b60405180910390f35b61036b60048036038101906103669190612598565b610e8f565b60405161037891906131c3565b60405180910390f35b610389610fe1565b005b6103a560048036038101906103a091906123c8565b6111d1565b6040516103b291906131a8565b60405180910390f35b60007f80ac58cd000000000000000000000000000000000000000000000000000000007bffffffffffffffffffffffffffffffffffffffffffffffffffffffff1916827bffffffffffffffffffffffffffffffffffffffffffffffffffffffff1916148061048657507f5b5e139f000000000000000000000000000000000000000000000000000000007bffffffffffffffffffffffffffffffffffffffffffffffffffffffff1916827bffffffffffffffffffffffffffffffffffffffffffffffffffffffff1916145b806104965750610495826112fe565b5b9050919050565b6060600080546104ac906136e2565b80601f01602080910402602001604051908101604052809291908181526020018280546104d8906136e2565b80156105255780601f106104fa57610100808354040283529160200191610525565b820191906000526020600020905b81548152906001019060200180831161050857829003601f168201915b5050505050905090565b600061053a82611368565b610579576040517f08c379a0000000000000000000000000000000000000000000000000000000008152600401610570906133a3565b60405180910390fd5b6004600083815260200190815260200160002060009054906101000a900473ffffffffffffffffffffffffffffffffffffffff169050919050565b60006105bf8261086a565b90508073ffffffffffffffffffffffffffffffffffffffff168373ffffffffffffffffffffffffffffffffffffffff161415610630576040517f08c379a000000000000000000000000000000000000000000000000000000000815260040161062790613403565b60405180910390fd5b8073ffffffffffffffffffffffffffffffffffffffff1661064f6113d4565b73ffffffffffffffffffffffffffffffffffffffff16148061067e575061067d816106786113d4565b6111d1565b5b6106bd576040517f08c379a00000000000000000000000000000000000000000000000000000000081526004016106b4906132e3565b60405180910390fd5b6106c783836113dc565b505050565b6106dd6106d76113d4565b82611495565b61071c576040517f08c379a000000000000000000000000000000000000000000000000000000000815260040161071390613423565b60405180910390fd5b610727838383611573565b505050565b6060600061076061073c846117cf565b60405160200161074c91906130d4565b60405160208183030381529060405261197c565b905060098054905081610773919061375d565b9050600981815481106107af577f4e487b7100000000000000000000000000000000000000000000000000000000600052603260045260246000fd5b9060005260206000200180546107c4906136e2565b80601f01602080910402602001604051908101604052809291908181526020018280546107f0906136e2565b801561083d5780601f106108125761010080835404028352916020019161083d565b820191906000526020600020905b81548152906001019060200180831161082057829003601f168201915b5050505050915050919050565b61086583838360405180602001604052806000815250610d0f565b505050565b6000806002600084815260200190815260200160002060009054906101000a900473ffffffffffffffffffffffffffffffffffffffff169050600073ffffffffffffffffffffffffffffffffffffffff168173ffffffffffffffffffffffffffffffffffffffff161415610913576040517f08c379a000000000000000000000000000000000000000000000000000000000815260040161090a90613323565b60405180910390fd5b80915050919050565b60008073ffffffffffffffffffffffffffffffffffffffff168273ffffffffffffffffffffffffffffffffffffffff16141561098d576040517f08c379a000000000000000000000000000000000000000000000000000000000815260040161098490613303565b60405180910390fd5b600360008373ffffffffffffffffffffffffffffffffffffffff1673ffffffffffffffffffffffffffffffffffffffff168152602001908152602001600020549050919050565b6000600c54905090565b6060600180546109ed906136e2565b80601f0160208091040260200160405190810160405280929190818152602001828054610a19906136e2565b8015610a665780601f10610a3b57610100808354040283529160200191610a66565b820191906000526020600020905b815481529060010190602001808311610a4957829003601f168201915b5050505050905090565b610a786113d4565b73ffffffffffffffffffffffffffffffffffffffff168273ffffffffffffffffffffffffffffffffffffffff161415610ae6576040517f08c379a0000000000000000000000000000000000000000000000000000000008152600401610add906132a3565b60405180910390fd5b8060056000610af36113d4565b73ffffffffffffffffffffffffffffffffffffffff1673ffffffffffffffffffffffffffffffffffffffff16815260200190815260200160002060008473ffffffffffffffffffffffffffffffffffffffff1673ffffffffffffffffffffffffffffffffffffffff16815260200190815260200160002060006101000a81548160ff0219169083151502179055508173ffffffffffffffffffffffffffffffffffffffff16610ba06113d4565b73ffffffffffffffffffffffffffffffffffffffff167f17307eab39ab6107e8899845ad3d59bd9653f200f220920489ca2b5937696c3183604051610be591906131a8565b60405180910390a35050565b60606000610c25610c01846117cf565b604051602001610c11919061306d565b60405160208183030381529060405261197c565b9050600a8054905081610c38919061375d565b9050600a8181548110610c74577f4e487b7100000000000000000000000000000000000000000000000000000000600052603260045260246000fd5b906000526020600020018054610c89906136e2565b80601f0160208091040260200160405190810160405280929190818152602001828054610cb5906136e2565b8015610d025780601f10610cd757610100808354040283529160200191610d02565b820191906000526020600020905b815481529060010190602001808311610ce557829003601f168201915b5050505050915050919050565b610d20610d1a6113d4565b83611495565b610d5f576040517f08c379a0000000000000000000000000000000000000000000000000000000008152600401610d5690613423565b60405180910390fd5b610d6b848484846119af565b50505050565b60606000610da5610d81846117cf565b604051602001610d91919061304b565b60405160208183030381529060405261197c565b9050600b8054905081610db8919061375d565b9050600b8181548110610df4577f4e487b7100000000000000000000000000000000000000000000000000000000600052603260045260246000fd5b906000526020600020018054610e09906136e2565b80601f0160208091040260200160405190810160405280929190818152602001828054610e35906136e2565b8015610e825780601f10610e5757610100808354040283529160200191610e82565b820191906000526020600020905b815481529060010190602001808311610e6557829003601f168201915b5050505050915050919050565b6060610e9a82611368565b610ed9576040517f08c379a0000000000000000000000000000000000000000000000000000000008152600401610ed090613383565b60405180910390fd5b6000600660008481526020019081526020016000208054610ef9906136e2565b80601f0160208091040260200160405190810160405280929190818152602001828054610f25906136e2565b8015610f725780601f10610f4757610100808354040283529160200191610f72565b820191906000526020600020905b815481529060010190602001808311610f5557829003601f168201915b505050505090506000610f83611a0b565b9050600081511415610f99578192505050610fdc565b600082511115610fce578082604051602001610fb6929190612fc7565b60405160208183030381529060405292505050610fdc565b610fd784611a22565b925050505b919050565b6000610fed6007611ac9565b9050610ff881611ad7565b60006110038261072c565b9050600061101083610bf1565b9050600061101d84610d71565b9050600083838360405160200161103693929190612feb565b6040516020818303038152906040529050600060088260405160200161105d92919061301c565b604051602081830303815290604052905060006110a28361107d84611b25565b60405160200161108e92919061308f565b604051602081830303815290604052611b25565b90506000816040516020016110b791906130f6565b60405160208183030381529060405290506111066040518060400160405280601581526020017f0a2d2d2d2d2d2d2d2d2d2d2d2d2d2d2d2d2d2d2d2d0000000000000000000000815250611265565b61110f81611265565b61114d6040518060400160405280601581526020017f2d2d2d2d2d2d2d2d2d2d2d2d2d2d2d2d2d2d2d2d0a0000000000000000000000815250611265565b6111573389611ce3565b6111618882611d01565b61116b6007611d75565b61118e6040518060600160405280602581526020016138b8602591398933611d8b565b7febb98688741ffa4c7589bf325de30cf7becb63de567842e1ccdb6cb949fdc82c33896040516111bf92919061317f565b60405180910390a15050505050505050565b6000600560008473ffffffffffffffffffffffffffffffffffffffff1673ffffffffffffffffffffffffffffffffffffffff16815260200190815260200160002060008373ffffffffffffffffffffffffffffffffffffffff1673ffffffffffffffffffffffffffffffffffffffff16815260200190815260200160002060009054906101000a900460ff16905092915050565b6112fb8160405160240161127991906131c3565b6040516020818303038152906040527f41304fac000000000000000000000000000000000000000000000000000000007bffffffffffffffffffffffffffffffffffffffffffffffffffffffff19166020820180517bffffffffffffffffffffffffffffffffffffffffffffffffffffffff8381831617835250505050611e2a565b50565b60007f01ffc9a7000000000000000000000000000000000000000000000000000000007bffffffffffffffffffffffffffffffffffffffffffffffffffffffff1916827bffffffffffffffffffffffffffffffffffffffffffffffffffffffff1916149050919050565b60008073ffffffffffffffffffffffffffffffffffffffff166002600084815260200190815260200160002060009054906101000a900473ffffffffffffffffffffffffffffffffffffffff1673ffffffffffffffffffffffffffffffffffffffff1614159050919050565b600033905090565b816004600083815260200190815260200160002060006101000a81548173ffffffffffffffffffffffffffffffffffffffff021916908373ffffffffffffffffffffffffffffffffffffffff160217905550808273ffffffffffffffffffffffffffffffffffffffff1661144f8361086a565b73ffffffffffffffffffffffffffffffffffffffff167f8c5be1e5ebec7d5bd14f71427d1e84f3dd0314c0f7b2291e5b200ac8c7c3b92560405160405180910390a45050565b60006114a082611368565b6114df576040517f08c379a00000000000000000000000000000000000000000000000000000000081526004016114d6906132c3565b60405180910390fd5b60006114ea8361086a565b90508073ffffffffffffffffffffffffffffffffffffffff168473ffffffffffffffffffffffffffffffffffffffff16148061155957508373ffffffffffffffffffffffffffffffffffffffff166115418461052f565b73ffffffffffffffffffffffffffffffffffffffff16145b8061156a575061156981856111d1565b5b91505092915050565b8273ffffffffffffffffffffffffffffffffffffffff166115938261086a565b73ffffffffffffffffffffffffffffffffffffffff16146115e9576040517f08c379a00000000000000000000000000000000000000000000000000000000081526004016115e0906133c3565b60405180910390fd5b600073ffffffffffffffffffffffffffffffffffffffff168273ffffffffffffffffffffffffffffffffffffffff161415611659576040517f08c379a000000000000000000000000000000000000000000000000000000000815260040161165090613283565b60405180910390fd5b611664838383611e53565b61166f6000826113dc565b6001600360008573ffffffffffffffffffffffffffffffffffffffff1673ffffffffffffffffffffffffffffffffffffffff16815260200190815260200160002060008282546116bf91906135f8565b925050819055506001600360008473ffffffffffffffffffffffffffffffffffffffff1673ffffffffffffffffffffffffffffffffffffffff16815260200190815260200160002060008282546117169190613517565b92505081905550816002600083815260200190815260200160002060006101000a81548173ffffffffffffffffffffffffffffffffffffffff021916908373ffffffffffffffffffffffffffffffffffffffff160217905550808273ffffffffffffffffffffffffffffffffffffffff168473ffffffffffffffffffffffffffffffffffffffff167fddf252ad1be2c89b69c2b068fc378daa952ba7f163c4a11628f55a4df523b3ef60405160405180910390a4505050565b60606000821415611817576040518060400160405280600181526020017f30000000000000000000000000000000000000000000000000000000000000008152509050611977565b600082905060005b6000821461184957808061183290613714565b915050600a82611842919061356d565b915061181f565b60008167ffffffffffffffff81111561188b577f4e487b7100000000000000000000000000000000000000000000000000000000600052604160045260246000fd5b6040519080825280601f01601f1916602001820160405280156118bd5781602001600182028036833780820191505090505b5090505b60008514611970576001826118d691906135f8565b9150600a856118e5919061375d565b60306118f19190613517565b60f81b81838151811061192d577f4e487b7100000000000000000000000000000000000000000000000000000000600052603260045260246000fd5b60200101907effffffffffffffffffffffffffffffffffffffffffffffffffffffffffffff1916908160001a905350600a85611969919061356d565b94506118c1565b8093505050505b919050565b60008160405160200161198f9190612fb0565b6040516020818303038152906040528051906020012060001c9050919050565b6119ba848484611573565b6119c684848484611e58565b611a05576040517f08c379a00000000000000000000000000000000000000000000000000000000081526004016119fc90613223565b60405180910390fd5b50505050565b606060405180602001604052806000815250905090565b6060611a2d82611368565b611a6c576040517f08c379a0000000000000000000000000000000000000000000000000000000008152600401611a63906133e3565b60405180910390fd5b6000611a76611a0b565b90506000815111611a965760405180602001604052806000815250611ac1565b80611aa0846117cf565b604051602001611ab1929190612fc7565b6040516020818303038152906040525b915050919050565b600081600001549050919050565b80600c819055506032811115611b22576040517f08c379a0000000000000000000000000000000000000000000000000000000008152600401611b1990613263565b60405180910390fd5b50565b60606000825190506000811415611b4e5760405180602001604052806000815250915050611cde565b60006003600283611b5f9190613517565b611b69919061356d565b6004611b75919061359e565b90506000602082611b869190613517565b67ffffffffffffffff811115611bc5577f4e487b7100000000000000000000000000000000000000000000000000000000600052604160045260246000fd5b6040519080825280601f01601f191660200182016040528015611bf75781602001600182028036833780820191505090505b50905060006040518060600160405280604081526020016138dd604091399050600181016020830160005b86811015611c9b5760038101905062ffffff818a015116603f8160121c168401518060081b905060ff603f83600c1c1686015116810190508060081b905060ff603f8360061c1686015116810190508060081b905060ff603f831686015116810190508060e01b90508084526004840193505050611c22565b506003860660018114611cb55760028114611cc557611cd0565b613d3d60f01b6002830352611cd0565b603d60f81b60018303525b508484525050819450505050505b919050565b611cfd828260405180602001604052806000815250611fef565b5050565b611d0a82611368565b611d49576040517f08c379a0000000000000000000000000000000000000000000000000000000008152600401611d4090613343565b60405180910390fd5b80600660008481526020019081526020016000209080519060200190611d7092919061222b565b505050565b6001816000016000828254019250508190555050565b611e25838383604051602401611da3939291906131e5565b6040516020818303038152906040527fe3849f79000000000000000000000000000000000000000000000000000000007bffffffffffffffffffffffffffffffffffffffffffffffffffffffff19166020820180517bffffffffffffffffffffffffffffffffffffffffffffffffffffffff8381831617835250505050611e2a565b505050565b60008151905060006a636f6e736f6c652e6c6f679050602083016000808483855afa5050505050565b505050565b6000611e798473ffffffffffffffffffffffffffffffffffffffff1661204a565b15611fe2578373ffffffffffffffffffffffffffffffffffffffff1663150b7a02611ea26113d4565b8786866040518563ffffffff1660e01b8152600401611ec49493929190613133565b602060405180830381600087803b158015611ede57600080fd5b505af1925050508015611f0f57506040513d601f19601f82011682018060405250810190611f0c919061256f565b60015b611f92573d8060008114611f3f576040519150601f19603f3d011682016040523d82523d6000602084013e611f44565b606091505b50600081511415611f8a576040517f08c379a0000000000000000000000000000000000000000000000000000000008152600401611f8190613223565b60405180910390fd5b805181602001fd5b63150b7a0260e01b7bffffffffffffffffffffffffffffffffffffffffffffffffffffffff1916817bffffffffffffffffffffffffffffffffffffffffffffffffffffffff191614915050611fe7565b600190505b949350505050565b611ff9838361205d565b6120066000848484611e58565b612045576040517f08c379a000000000000000000000000000000000000000000000000000000000815260040161203c90613223565b60405180910390fd5b505050565b600080823b905060008111915050919050565b600073ffffffffffffffffffffffffffffffffffffffff168273ffffffffffffffffffffffffffffffffffffffff1614156120cd576040517f08c379a00000000000000000000000000000000000000000000000000000000081526004016120c490613363565b60405180910390fd5b6120d681611368565b15612116576040517f08c379a000000000000000000000000000000000000000000000000000000000815260040161210d90613243565b60405180910390fd5b61212260008383611e53565b6001600360008473ffffffffffffffffffffffffffffffffffffffff1673ffffffffffffffffffffffffffffffffffffffff16815260200190815260200160002060008282546121729190613517565b92505081905550816002600083815260200190815260200160002060006101000a81548173ffffffffffffffffffffffffffffffffffffffff021916908373ffffffffffffffffffffffffffffffffffffffff160217905550808273ffffffffffffffffffffffffffffffffffffffff16600073ffffffffffffffffffffffffffffffffffffffff167fddf252ad1be2c89b69c2b068fc378daa952ba7f163c4a11628f55a4df523b3ef60405160405180910390a45050565b828054612237906136e2565b90600052602060002090601f01602090048101928261225957600085556122a0565b82601f1061227257805160ff19168380011785556122a0565b828001600101855582156122a0579182015b8281111561229f578251825591602001919060010190612284565b5b5090506122ad91906122b1565b5090565b5b808211156122ca5760008160009055506001016122b2565b5090565b60006122e16122dc8461348f565b61345e565b9050828152602081018484840111156122f957600080fd5b6123048482856136a0565b509392505050565b60008135905061231b8161385b565b92915050565b60008135905061233081613872565b92915050565b60008135905061234581613889565b92915050565b60008151905061235a81613889565b92915050565b600082601f83011261237157600080fd5b81356123818482602086016122ce565b91505092915050565b600081359050612399816138a0565b92915050565b6000602082840312156123b157600080fd5b60006123bf8482850161230c565b91505092915050565b600080604083850312156123db57600080fd5b60006123e98582860161230c565b92505060206123fa8582860161230c565b9150509250929050565b60008060006060848603121561241957600080fd5b60006124278682870161230c565b93505060206124388682870161230c565b92505060406124498682870161238a565b9150509250925092565b6000806000806080858703121561246957600080fd5b60006124778782880161230c565b94505060206124888782880161230c565b93505060406124998782880161238a565b925050606085013567ffffffffffffffff8111156124b657600080fd5b6124c287828801612360565b91505092959194509250565b600080604083850312156124e157600080fd5b60006124ef8582860161230c565b925050602061250085828601612321565b9150509250929050565b6000806040838503121561251d57600080fd5b600061252b8582860161230c565b925050602061253c8582860161238a565b9150509250929050565b60006020828403121561255857600080fd5b600061256684828501612336565b91505092915050565b60006020828403121561258157600080fd5b600061258f8482850161234b565b91505092915050565b6000602082840312156125aa57600080fd5b60006125b88482850161238a565b91505092915050565b6125ca8161362c565b82525050565b6125d98161363e565b82525050565b60006125ea826134d4565b6125f481856134ea565b93506126048185602086016136af565b61260d8161384a565b840191505092915050565b6000612623826134df565b61262d81856134fb565b935061263d8185602086016136af565b6126468161384a565b840191505092915050565b600061265c826134df565b612666818561350c565b93506126768185602086016136af565b80840191505092915050565b6000815461268f816136e2565b612699818661350c565b945060018216600081146126b457600181146126c5576126f8565b60ff198316865281860193506126f8565b6126ce856134bf565b60005b838110156126f0578154818901526001820191506020810190506126d1565b838801955050505b50505092915050565b600061270e6032836134fb565b91507f4552433732313a207472616e7366657220746f206e6f6e20455243373231526560008301527f63656976657220696d706c656d656e74657200000000000000000000000000006020830152604082019050919050565b6000612774601c836134fb565b91507f4552433732313a20746f6b656e20616c7265616479206d696e746564000000006000830152602082019050919050565b60006127b4600a8361350c565b91507f54484952445f574f5244000000000000000000000000000000000000000000006000830152600a82019050919050565b60006127f4600c836134fb565b91507f4d6178203530204e4654732e00000000000000000000000000000000000000006000830152602082019050919050565b60006128346024836134fb565b91507f4552433732313a207472616e7366657220746f20746865207a65726f2061646460008301527f72657373000000000000000000000000000000000000000000000000000000006020830152604082019050919050565b600061289a6019836134fb565b91507f4552433732313a20617070726f766520746f2063616c6c6572000000000000006000830152602082019050919050565b60006128da60638361350c565b91507f222c20226465736372697074696f6e223a20224120686967686c79206163636c60008301527f61696d656420636f6c6c656374696f6e206f6620737175617265732e222c202260208301527f696d616765223a2022646174613a696d6167652f7376672b786d6c3b6261736560408301527f36342c00000000000000000000000000000000000000000000000000000000006060830152606382019050919050565b600061298c600b8361350c565b91507f5345434f4e445f574f52440000000000000000000000000000000000000000006000830152600b82019050919050565b60006129cc602c836134fb565b91507f4552433732313a206f70657261746f7220717565727920666f72206e6f6e657860008301527f697374656e7420746f6b656e00000000000000000000000000000000000000006020830152604082019050919050565b6000612a32600d8361350c565b91507f3c2f746578743e3c2f7376673e000000000000000000000000000000000000006000830152600d82019050919050565b6000612a726038836134fb565b91507f4552433732313a20617070726f76652063616c6c6572206973206e6f74206f7760008301527f6e6572206e6f7220617070726f76656420666f7220616c6c00000000000000006020830152604082019050919050565b6000612ad8602a836134fb565b91507f4552433732313a2062616c616e636520717565727920666f7220746865207a6560008301527f726f2061646472657373000000000000000000000000000000000000000000006020830152604082019050919050565b6000612b3e6029836134fb565b91507f4552433732313a206f776e657220717565727920666f72206e6f6e657869737460008301527f656e7420746f6b656e00000000000000000000000000000000000000000000006020830152604082019050919050565b6000612ba4602e836134fb565b91507f45524337323155524953746f726167653a2055524920736574206f66206e6f6e60008301527f6578697374656e7420746f6b656e0000000000000000000000000000000000006020830152604082019050919050565b6000612c0a60028361350c565b91507f227d0000000000000000000000000000000000000000000000000000000000006000830152600282019050919050565b6000612c4a6020836134fb565b91507f4552433732313a206d696e7420746f20746865207a65726f20616464726573736000830152602082019050919050565b6000612c8a6031836134fb565b91507f45524337323155524953746f726167653a2055524920717565727920666f722060008301527f6e6f6e6578697374656e7420746f6b656e0000000000000000000000000000006020830152604082019050919050565b6000612cf0602c836134fb565b91507f4552433732313a20617070726f76656420717565727920666f72206e6f6e657860008301527f697374656e7420746f6b656e00000000000000000000000000000000000000006020830152604082019050919050565b6000612d566029836134fb565b91507f4552433732313a207472616e73666572206f6620746f6b656e2074686174206960008301527f73206e6f74206f776e00000000000000000000000000000000000000000000006020830152604082019050919050565b6000612dbc602f836134fb565b91507f4552433732314d657461646174613a2055524920717565727920666f72206e6f60008301527f6e6578697374656e7420746f6b656e00000000000000000000000000000000006020830152604082019050919050565b6000612e22600a8361350c565b91507f7b226e616d65223a2022000000000000000000000000000000000000000000006000830152600a82019050919050565b6000612e626021836134fb565b91507f4552433732313a20617070726f76616c20746f2063757272656e74206f776e6560008301527f72000000000000000000000000000000000000000000000000000000000000006020830152604082019050919050565b6000612ec8600a8361350c565b91507f46495253545f574f5244000000000000000000000000000000000000000000006000830152600a82019050919050565b6000612f08601d8361350c565b91507f646174613a6170706c69636174696f6e2f6a736f6e3b6261736536342c0000006000830152601d82019050919050565b6000612f486031836134fb565b91507f4552433732313a207472616e736665722063616c6c6572206973206e6f74206f60008301527f776e6572206e6f7220617070726f7665640000000000000000000000000000006020830152604082019050919050565b612faa81613696565b82525050565b6000612fbc8284612651565b915081905092915050565b6000612fd38285612651565b9150612fdf8284612651565b91508190509392505050565b6000612ff78286612651565b91506130038285612651565b915061300f8284612651565b9150819050949350505050565b60006130288285612682565b91506130348284612651565b915061303f82612a25565b91508190509392505050565b6000613056826127a7565b91506130628284612651565b915081905092915050565b60006130788261297f565b91506130848284612651565b915081905092915050565b600061309a82612e15565b91506130a68285612651565b91506130b1826128cd565b91506130bd8284612651565b91506130c882612bfd565b91508190509392505050565b60006130df82612ebb565b91506130eb8284612651565b915081905092915050565b600061310182612efb565b915061310d8284612651565b915081905092915050565b600060208201905061312d60008301846125c1565b92915050565b600060808201905061314860008301876125c1565b61315560208301866125c1565b6131626040830185612fa1565b818103606083015261317481846125df565b905095945050505050565b600060408201905061319460008301856125c1565b6131a16020830184612fa1565b9392505050565b60006020820190506131bd60008301846125d0565b92915050565b600060208201905081810360008301526131dd8184612618565b905092915050565b600060608201905081810360008301526131ff8186612618565b905061320e6020830185612fa1565b61321b60408301846125c1565b949350505050565b6000602082019050818103600083015261323c81612701565b9050919050565b6000602082019050818103600083015261325c81612767565b9050919050565b6000602082019050818103600083015261327c816127e7565b9050919050565b6000602082019050818103600083015261329c81612827565b9050919050565b600060208201905081810360008301526132bc8161288d565b9050919050565b600060208201905081810360008301526132dc816129bf565b9050919050565b600060208201905081810360008301526132fc81612a65565b9050919050565b6000602082019050818103600083015261331c81612acb565b9050919050565b6000602082019050818103600083015261333c81612b31565b9050919050565b6000602082019050818103600083015261335c81612b97565b9050919050565b6000602082019050818103600083015261337c81612c3d565b9050919050565b6000602082019050818103600083015261339c81612c7d565b9050919050565b600060208201905081810360008301526133bc81612ce3565b9050919050565b600060208201905081810360008301526133dc81612d49565b9050919050565b600060208201905081810360008301526133fc81612daf565b9050919050565b6000602082019050818103600083015261341c81612e55565b9050919050565b6000602082019050818103600083015261343c81612f3b565b9050919050565b60006020820190506134586000830184612fa1565b92915050565b6000604051905081810181811067ffffffffffffffff821117156134855761348461381b565b5b8060405250919050565b600067ffffffffffffffff8211156134aa576134a961381b565b5b601f19601f8301169050602081019050919050565b60008190508160005260206000209050919050565b600081519050919050565b600081519050919050565b600082825260208201905092915050565b600082825260208201905092915050565b600081905092915050565b600061352282613696565b915061352d83613696565b9250827fffffffffffffffffffffffffffffffffffffffffffffffffffffffffffffffff038211156135625761356161378e565b5b828201905092915050565b600061357882613696565b915061358383613696565b925082613593576135926137bd565b5b828204905092915050565b60006135a982613696565b91506135b483613696565b9250817fffffffffffffffffffffffffffffffffffffffffffffffffffffffffffffffff04831182151516156135ed576135ec61378e565b5b828202905092915050565b600061360382613696565b915061360e83613696565b9250828210156136215761362061378e565b5b828203905092915050565b600061363782613676565b9050919050565b60008115159050919050565b60007fffffffff0000000000000000000000000000000000000000000000000000000082169050919050565b600073ffffffffffffffffffffffffffffffffffffffff82169050919050565b6000819050919050565b82818337600083830152505050565b60005b838110156136cd5780820151818401526020810190506136b2565b838111156136dc576000848401525b50505050565b600060028204905060018216806136fa57607f821691505b6020821081141561370e5761370d6137ec565b5b50919050565b600061371f82613696565b91507fffffffffffffffffffffffffffffffffffffffffffffffffffffffffffffffff8214156137525761375161378e565b5b600182019050919050565b600061376882613696565b915061377383613696565b925082613783576137826137bd565b5b828206905092915050565b7f4e487b7100000000000000000000000000000000000000000000000000000000600052601160045260246000fd5b7f4e487b7100000000000000000000000000000000000000000000000000000000600052601260045260246000fd5b7f4e487b7100000000000000000000000000000000000000000000000000000000600052602260045260246000fd5b7f4e487b7100000000000000000000000000000000000000000000000000000000600052604160045260246000fd5b6000601f19601f8301169050919050565b6138648161362c565b811461386f57600080fd5b50565b61387b8161363e565b811461388657600080fd5b50565b6138928161364a565b811461389d57600080fd5b50565b6138a981613696565b81146138b457600080fd5b5056fe416e204e465420772f20494420257320686173206265656e206d696e74656420746f2025734142434445464748494a4b4c4d4e4f505152535455565758595a6162636465666768696a6b6c6d6e6f707172737475767778797a303132333435363738392b2fa2646970667358221220d19c262593c3000401189ce81f1976b596b0368b6a863b2692367222d4d61c8f64736f6c634300080000333c73766720786d6c6e733d27687474703a2f2f7777772e77332e6f72672f323030302f73766727207072657365727665417370656374526174696f3d27784d696e594d696e206d656574272076696577426f783d273020302033353020333530273e3c7374796c653e2e62617365207b2066696c6c3a2077686974653b20666f6e742d66616d696c793a2073657269663b20666f6e742d73697a653a20323470783b207d3c2f7374796c653e3c726563742077696474683d273130302527206865696768743d2731303025272066696c6c3d27626c61636b27202f3e3c7465787420783d273530252720793d273530252720636c6173733d27626173652720646f6d696e616e742d626173656c696e653d276d6964646c652720746578742d616e63686f723d276d6964646c65273e",
  "linkReferences": {},
  "deployedLinkReferences": {}
}